:020000040800F2
:1000000000500020C1530008E1520008E5520008EA
:10001000E9520008ED520008F1520008000000000B
:10002000000000000000000000000000F552000881
:10003000F952000800000000FD52000801530008BA
:10004000095400080954000809540008095400081C
:10005000095400080954000809540008095400080C
:1000600009540008095400080954000809540008FC
:1000700009540008095400080954000809540008EC
:1000800009540008095400080954000809540008DC
:1000900009540008095400080954000809540008CC
:1000A00009540008095400080954000809540008BC
:1000B00009540008095400080954000809540008AC
:1000C000095400080954000809540008095400089C
:1000D000095400080954000809540008095400088C
:1000E00009540008095400080954000800000000E1
:1000F0000000000000000000000000000000000000
:0C01000000000000000000005FF808F1A3
:1001100010B5054C237833B9044B13B10448AFF341
:1001200000800123237010BD240100200000000086
:100130004CB1000808B5034B1BB103490348AFF3AA
:10014000008008BD00000000280100204CB100081C
:1001500010F8012B11F8013B012A28BF9A42F7D071
:10016000D01A7047034613F8012B002AFBD1181A46
:10017000013870477BB972B90029BEBF00204FF02B
:10018000004106E008BF00281CBF6FF000414FF09F
:10019000FF3001F03BB9ADF1080C6DE904CE002948
:1001A00009DB002B1ADB00F04DF8DDF804E0DDE997
:1001B000022304B07047404261EB4101002B1BDB7E
:1001C00000F040F8DDF804E0DDE9022304B040422D
:1001D00061EB4101524263EB43037047524263EBD0
:1001E000430300F02FF8DDF804E0DDE9022304B05A
:1001F000404261EB41017047524263EB430300F020
:1002000021F8DDF804E0DDE9022304B0524263EB9B
:100210004303704753B94AB9002908BF00281CBFDF
:100220004FF0FF314FF0FF3001F0F0B8ADF1080CA6
:100230006DE904CE00F006F8DDF804E0DDE9022304
:1002400004B070472DE9F0478C460446089E002B09
:1002500040F086808A42154648D9B2FA82F24AB105
:10026000C2F1200701FA02F320FA07F7954047EAA6
:10027000030C94404FEA154EBCFBFEF71FFA85F8BD
:100280000EFB17C307FB08F9210C41EA034399450C
:1002900009D9EB1807F1FF3180F0E180994540F270
:1002A000DE80023F2B44A3EB0903B3FBFEF00EFB01
:1002B000103300FB08F1A4B244EA0344A14209D977
:1002C0002C1900F1FF3380F0C880A14240F2C580B4
:1002D00002382C4440EA07400027641A1EB100236C
:1002E000D440C6E900433946BDE8F087002A54D01F
:1002F000B2FA82F2002A40F0B4800127491B4FEA8B
:1003000015481FFA85F9B1FBF8FE08FB1E1109FB21
:100310000EF04FEA144C4CEA0143984207D9EB180F
:100320000EF1FF3102D2984200F2EB808E461B1A8A
:10033000B3FBF8F008FB103309FB00F9A4B244EA60
:100340000344A14507D92C1900F1FF3302D2A1457E
:1003500000F2DB801846A4EB090440EA0E40BDE73A
:100360008B4208D9002E75D00027C6E90001384617
:100370003946BDE8F087B3FA83F77FB98B4202D3E1
:10038000824200F2BC80841A61EB030301209C4688
:10039000002EA8D0C6E9004CA5E7FFDEC7F1200576
:1003A000BB4022FA05FC4CEA030C21FA05F44FEAA3
:1003B0001C4EB4FBFEF91FFA8CF80EFB194420FA10
:1003C00005F3B94009FB08FA19430B0C43EA04444E
:1003D000A24502FA07F200FA07F30BD91CEB04045A
:1003E00009F1FF3080F08980A24540F28680A9F1B2
:1003F00002096444A4EB0A04B4FBFEF00EFB1044B3
:1004000000FB08FA89B241EA0444A24508D91CEB72
:10041000040400F1FF316CD2A2456AD90238644469
:1004200040EA0940A0FB0289A4EB0A044C4541467E
:10043000CE4655D352D0002E6AD05A1A64EB0E0421
:1004400004FA05F522FA07F3FC401D43C6E90054FF
:10045000002748E73746304645E718463AE70F4653
:1004600021E79540C2F1200321FA03F04FEA154835
:10047000B0FBF8F71FFA85F908FB170E24FA03FC06
:10048000914007FB09FA4CEA0101080C40EA0E40D2
:10049000824504FA02F407D9281807F1FF332AD25B
:1004A000824528D9023F2844A0EB0A00B0FBF8FCA3
:1004B00008FB1C000CFB09F389B241EA00418B42A6
:1004C00008D969180CF1FF3011D28B420FD9ACF169
:1004D000020C2944C91A4CEA074714E74345AAD23B
:1004E000B8EB020169EB0C0201389646A3E784469B
:1004F000F0E7084694E71F46D6E781467AE7384694
:1005000046E7AEF1020E2B4411E702382C4422E7F5
:100510003746E8E603685A004CBF43F0004323F037
:1005200000431844704700BF69B32DE9F04701F15B
:10053000FF3917460646C8464FF0000A0AEB080482
:1005400004EBD4746410E50071190846FFF7E2FF6C
:10055000A145034605F10800304409D0BB4209D843
:10056000FFF7D8FF0138B8420AD204F1010AE5E7E3
:10057000BB4205D9A24502D004F1FF38DEE70021D5
:100580000846BDE8F0870846704700BF012807D03D
:10059000022807D0044B00280CBF184600207047E3
:1005A0000248704702487047790C00087D0C00082B
:1005B000810C000830B5254B83B004468D1E4BB32B
:1005C00001A92846AFF30080F0B101992A46FFF750
:1005D000ABFF0146C0B1FFF79DFF4B68A064012B44
:1005E0002FD0002B01F1040027DBFFF793FF00233E
:1005F000C4E913030368002B13DBFFF78BFF002311
:100600002061184603B030BD09230022184622613C
:1006100003B030BD0E4B0F491846C91AC9100191DD
:10062000D4E7C3F30360FFF7B1FF002814BF002332
:1006300009232061184603B030BD0123C4E9130328
:10064000D8E7002205232261DBE700BF000000009D
:1006500034C30008CCC50008036810B5DA070446A7
:1006600006D49B0700F1480009D500F059FC236827
:10067000590709D51A070ED5DB0613D510BD00F0B2
:1006800047FC23685907F5D404F1D00000F050FC72
:1006900023681A07F0D404F5A87000F051FC236811
:1006A000DB06EBD404F5E870BDE8104000F08CBC2C
:1006B000036803B103441846704700BF0920704720
:1006C000704700BF70B504460D46296C2046FFF701
:1006D00071FF064688B92A6C2369626121462A4661
:1006E000012098470828F0D0072806D13046296C09
:1006F000FFF7E6FF281D00F0FFFB0AF0C1FB00BF7B
:100700002DE9F04705464FF0000CADF5727D03ACC6
:100710000E1D17460FCE0FC40FCE0FC40FCE0FC441
:1007200096E80F00D5F80C80D5F8189084E80F00F3
:1007300002AC2846216CC4F800C0FFF73BFF064618
:10074000002F14BF0A27092746BB236C4FF4F07211
:100750006B6121467AA80AF0D5FB2B697AAA294653
:1007600038469847889B8246CDE9004939466364FC
:100770002A462B460120C047D8B94FF4F0727AA917
:1007800020460AF0BFFBBAF1080F18D1216C2846A9
:10079000FFF710FF06460927002ED6D0A36B47F0BF
:1007A0001001CDE900492A46636401202B46C04769
:1007B00000B1092630460DF5727DBDE8F087BAF12B
:1007C000070FF6D13046216CFFF77AFF03A800F03F
:1007D00093FB00BF406C70474FF0FF3CF0B5CB6B14
:1007E000F9B00B640E1D01AD0F4604460FCE0FC5C8
:1007F0000FCE0FC50FCE0FC596E80F0085E80F008E
:10080000CDF800C006E023696A46214698470828CB
:10081000054608D110992046FFF7CCFE0028F2D0FB
:10082000092079B0F0BD6846FFF716FF062DF7D115
:1008300039462046FFF746FF30B4DD6BC160826168
:1008400019461D64002230BC5AE700BF70B54369E9
:10085000C6680B64AEB903690A4604460D460146F4
:1008600002209847072805D008280FD1294620469E
:10087000FFF728FF3046296CFFF722FF281D00F004
:100880003BFB0122FFF73CFF0AF0FAFA0AF0F8FA04
:10089000C2682AB110B4CC6B00220C6410BC2FE7E4
:1008A0009AE700BF704700BF836813B1014601207B
:1008B00018477047042910D8DFE801F005030F033B
:1008C00003000120704743B90F2A06D800EB8200CD
:1008D00042681846009B1A6070470220704700BFAC
:1008E000002310B584B003AC0A4600941946FFF704
:1008F000E1FF039804B010BD042910D8DFE801F02F
:1009000005030F0303000120704743B90F2A06D8DF
:10091000009900EB82020968184651607047022076
:10092000704700BF002310B584B003AC039200945D
:100930000A461946FFF7E0FF04B010BD4FF0FF3C38
:10094000F0B5D36BADF50F7D1364151D17AC0746DD
:100950000E460FCD0FC40FCD0FC40FCD0FC495E8B9
:100960000F0084E80F00CDF858C012E00C2116A843
:100970006A46FFF7D7FF314616A8B84778B9049BF7
:1009800016AA6946082098470528044608D0092871
:1009900005D026996846FFF70DFE0028E6D0092409
:1009A00016A8FFF759FE20460DF50F7DF0BD00BFDC
:1009B0002DE9F04FCC6C174654F8042B89B00D4646
:1009C00000F0030806941E46002B61D00221130C90
:1009D0008DF81D301204DBB204EB830405928DF810
:1009E0001C102B6DB8F1020F08BFAC6B13F00103A4
:1009F00078D1019300F008030293D4F800A0BAF173
:100A0000000F00F01B81022E3ED0B4F800A0B4F815
:100A100002900434AA6C29F0010B0F21384693444C
:100A2000FFF75EFF83452DD82AF001025A44824227
:100A300094BF002001204FEA490303F002030AF0AB
:100A4000010A43EA0A03012B30D03BB3022B15D134
:100A5000236823F0004BB8F1000F4DD130B1029A5A
:100A6000002A6DD0BBF1000F00F0A080002B00DA4F
:100A700004340BF1010B04EB8B04BEE7092009B031
:100A8000BDE8F08F0020D6E7D4F804900834C1E721
:100A9000032312020592ADF81C30A2E7B8F1000F53
:100AA00002D0002840F09D800434A6E7B8F1000F82
:100AB0002CD1A8B1D4E90023991C4FEAD272DDD021
:100AC00005F158010133049100F09E80201DFFF7CD
:100AD000EFFD04AB014628460AF074F800286FD1F8
:100AE00008348AE7384605A900F008FB0028C5D17C
:100AF000082009B0BDE8F08F0D213846D5F82090C8
:100B0000FFF7EEFE814540D02368AFE70D21384660
:100B1000D5F82090FFF7E4FE8145E1D1AB6A9C4215
:100B2000DED12046FFF7F6FC0F2102463846FFF7DC
:100B3000F9FE38462A460021FFF7F4FE07209EE71B
:100B4000BBF1000F32D005F15803CDF80C80DDF871
:100B500008A0B04604F104091E4601E0DA4525D09C
:100B600048460496FFF7A4FD04AB01460022284640
:100B70000AF028F80AF1010A09F104090028EDD069
:100B800046462368DDF80C8070E7AB6A9C42BBD117
:100B900004224FF00009A318C5E90AB9C5E90C23DE
:100BA00023684B4538DB0123019362E738460D216A
:100BB000FFF796FE049B2862C5E9093406205EE72C
:100BC00081460D213846FFF78BFEB9F1020F2862EE
:100BD0001FD12B46049A43F82C2F6B62AC6206207F
:100BE0004DE72046FFF796FC04340646AC632846E2
:100BF0000AF046F800283FF441AF384632460F214C
:100C0000FFF790FE07203AE738460D21FFF768FE10
:100C10002862049B6B62E1E70BF1010004EB8000AA
:100C2000FFF778FC0F2102463846FFF77BFE384677
:100C30002A464946FFF776FE072020E705A93846F1
:100C400000F05CFA00287FF419AF019B002B3FF401
:100C50004FAF0F213846FFF743FE0E2102463846BC
:100C6000FFF760FE3846034A0F21FFF75BFE0720BF
:100C700005E700BF45AD0008002399E6012397E68C
:100C8000022395E62DE9F0410446C4B0042900F2A0
:100C9000AD80DFE801F0924EAB290300002B40F05D
:100CA000A580102A00F2A2802368DD0600F1FA80F8
:100CB00022AD28460192012600F090F90023A16B95
:100CC000019A06FA03F010421CBF51F8040B45F8D4
:100CD00023000133042BF4D12846A16300F074F9FA
:100CE000002044B0BDE8F081032B7FD1160C97B2F1
:100CF000F319102B7AD823681A0700F1DD8022AD92
:100D0000284600F03FF905EBC600A16B4FB1034642
:100D1000FA001044CE1A9F5943F8047B8342FAD15B
:100D200011442846A16300F00BF9002044B0BDE84F
:100D3000F081012B4FEA12461FFA82F852D0052BA0
:100D400054D106EB0807202F50D80F2E52D9474612
:100D5000B8F1000F61D14046A16BB8F1000F00F06F
:100D6000B78022AD002705EBC605043D01EBC002AC
:100D700051F8040B914245F8040FF9D17FB102AD4F
:100D8000102E304638BF102005EBC000843802EB2F
:100D9000C70152F8045B914240F8045FF9D1012B7E
:100DA00000F092800F2EA16368D917B102A800F05D
:100DB000BFF8002044B0BDE8F081BBB90126A16BAB
:100DC00095B2271D06FA03F028421CBF51F8040B08
:100DD00047F823000133102BF4D112F40050E8D16E
:100DE000A16304E006EB0802102A28D9022044B0CF
:100DF000BDE8F081102F7CD9103F2268D0070AD5BA
:100E0000204622F0010242F0020240F8482B0193F2
:100E100000F08AF8019B002F5CD02268510737D47C
:100E20000F2E2FD902AD2846019300F085F8C6F1A8
:100E300010000028A16B019B48DD22AD93E70F2E27
:100E4000D4D82268D10708D5204622F0030240F802
:100E5000482B019300F060F8019B22AD28460193D6
:100E600000F05AF84046A16B019B00287FF47AAF4E
:100E70000431A163284600F04BF89AE722A800F05D
:100E80004FF892E722A8019300F04EF8019BC9E7C2
:100E9000204622F0040240F8D02B019300F04CF8D9
:100EA000019BBDE723F01003236004F5E870019275
:100EB00000F094F8019AFBE623F00803236004F5A0
:100EC000A87000F05FF81AE722ADD1E70A4657E7AD
:100ED000474667E70F2E3FF63EAF22AD2846019307
:100EE00000F022F84046A16B019B00287FF43AAF46
:100EF00058E7002781E700BF00F1340191E838008E
:100F00009C46A6464CF8045D90E8FF0FE54600BD00
:100F100090EC210B704700BF80EC210B704700BFA5
:100F200090EC200B704700BF80EC200B704700BF97
:100F3000D0EC200B704700BFC0EC200B704700BF07
:100F4000F0EC0201F0EC0211F0EC0221F0EC0231C5
:100F5000F0EC0241F0EC0251F0EC0261F0EC0271B5
:100F6000F0EC0281F0EC0291F0EC02A1F0EC02B1A5
:100F7000F0EC02C1F0EC02D1F0EC02E1F0EC02F195
:100F8000704700BFE0EC0201E0EC0211E0EC02214E
:100F9000E0EC0231E0EC0241E0EC0251E0EC0261F5
:100FA000E0EC0271E0EC0281E0EC0291E0EC02A1E5
:100FB000E0EC02B1E0EC02C1E0EC02D1E0EC02E1D5
:100FC000E0EC02F1704700BFB0FC0181B0FC019180
:100FD000B0FC01A1B0FC01B1704700BFA0FC0181D1
:100FE000A0FC0191A0FC01A1A0FC01B1704700BFD1
:100FF000EC4600B52DE900502DE9FF1F4FF000032E
:101000002DE90C0001A9FFF7E7FBDDF840E012B085
:10101000704700BFEC4600B52DE900502DE9FF1FD9
:101020004FF000032DE90C0001A9FFF70FFCDDF8DC
:1010300040E012B0704700BFEC4600B52DE900500B
:101040002DE9FF1F4FF000032DE90C0001A9FFF768
:101050001FFCDDF840E012B0704700BFEC4600B561
:101060002DE900502DE9FF1F4FF000032DE90C0082
:1010700001ABFFF7E1FBDDF840E012B0704700BFC5
:10108000EC4600B52DE900502DE9FF1F4FF000039D
:101090002DE90C0001AAFFF751FCDDF840E012B089
:1010A000704700BF027A7AB9437AA3B1032142683C
:1010B000013B10B443721368141D01721A0244609C
:1010C000026010BC180E70470368013A02721A02DF
:1010D0000260180E7047B020704700BF002300B5B3
:1010E00085B003AA009219460C22FFF7E3FB039890
:1010F00005B05DF804FB00BFF0E700BF2DE9F04349
:1011000005460E464FF0000885B03046FFF7CAFF8F
:10111000B028044600F0B180070620D500F0F003A7
:10112000802B4DD0902B36D0A02B60D0B02B73D01D
:10113000C02B00F08A8000F0F803D02B0BD100F018
:101140000702013242F40022052301212846FFF75D
:1011500099FD0028D9D0092005B0BDE8F08300230F
:101160000DF10C0919468700CDF800900D22284694
:10117000FFF7A0FBFFB2039B043760064CBFDF1BE9
:10118000FF180023CDF8009019460D22284603973A
:10119000FFF7B2FBB9E700F00D030D2BDBD0002306
:1011A00003AF00F00F02194600972846FFF782FBB5
:1011B0000023009719460D222846FFF79DFBA4E760
:1011C0003046FFF76FFF24020443B4F5004FC2D04E
:1011D00000232401A2B219462846FFF753FD002838
:1011E000B9D114F4004F18BF4FF001088DE7C34385
:1011F0004FF47F6203F007031A410023010702F452
:101200007F6248BF42F4804219462846FFF73AFD04
:1012100000283FF47AAF9EE7B12833D0B22800F01F
:10122000A080B32841D000F0FC03B42B93D001235D
:1012300000F007021A4442F4002219462846FFF73C
:1012400021FD00283FF461AF85E7C62851D0C728AB
:101250005AD000F0F803C02B69D0C82875D0C9282F
:101260007FF479AF3046FFF71DFF020300F00F0057
:1012700002F470220130024366E7B8F1000F27D074
:10128000002069E73046FFF70DFF00283FF463AF09
:1012900010F0F0037FF45FAF024619462846FFF7CF
:1012A000F1FC00283FF431AF55E73046FFF7FAFE76
:1012B0000123020300F00F0002F47021C2180A4358
:1012C00028461946FFF7DEFC00283FF41EAF42E730
:1012D00003AC43460E22414600942846FFF7EAFA43
:1012E0000094284643460F224146FFF705FB40463F
:1012F00032E73046FFF7D6FE020300F00F0002F49B
:1013000070210323421CDAE73046FFF7CBFE0028AA
:101310003FF421AF10F0F0037FF41DAF024604212B
:101320002846FFF7AFFC00283FF4EFAE13E7032396
:1013300000F00F02013242F4202219462846FFF73E
:10134000A1FC00283FF4E1AE05E73046FFF7AAFE16
:1013500000F0F00200F00F031032013343EA0232D2
:10136000F2E600230DF10C090D221946CDF800908C
:101370002846FFF79FFA3046FFF794FE02064FF02B
:1013800002070CD5039B00F07F00B84003443046B1
:101390000393FFF787FE030607F10707F2D4002344
:1013A000039A00F07F04BC4002F501721444CDF8AA
:1013B000009019460D2228460394FFF79DFAA4E6F3
:1013C00030B503240D46C36C85B05A688DF80C40C7
:1013D000DC791202083301A9284601928DF80D40EC
:1013E0000293FFF78BFE05B030BD00BF08B5FFF7D5
:1013F00083FE806C08BD00BF08B5FFF77DFEC06CA2
:10140000C379023300EB830008BD00BF704700BF03
:1014100038B54FF47A730D490D4A09781268B3FB59
:10142000F1F30546B2FBF3F000F094F808B90F2D84
:1014300001D9012038BD0446024629464FF0FF304D
:1014400000F052F8034B20461D6038BD000000201C
:101450000800002004000020074A08B51368032094
:1014600043F01003136000F02DF80020FFF7D0FFC9
:1014700003F06EFE002008BD00200240034A044B2A
:1014800011681B780B441360704700BFE80200200E
:1014900000000020014B1868704700BFE8020020E0
:1014A00038B50446FFF7F6FF631C054602D0044B2F
:1014B0001B781C44FFF7EEFF401BA042FAD338BD57
:1014C000000000204FF6FF01064A0002D36800F436
:1014D000E0600B40184340F0BF6040F40030D06043
:1014E000704700BF00ED00E0184B30B4DC68C4F377
:1014F0000224C4F10705042D04F1040328BF0425C8
:10150000062B18D94FF0FF33033CA34022EA030215
:101510004FF0FF33AB4021EA0303A34013431B0109
:101520000028DBB20ADB00F1604000F5614080F882
:10153000003330BC704700221446E9E7044A00F04B
:101540000F000244137630BC704700BF00ED00E08E
:10155000FCEC00E00138B0F1807F0DD230B4F02512
:1015600000220721054B064C586084F82350104692
:1015700030BC9A60196070470120704710E000E0AD
:1015800000ED00E008B503F04BFF08BD2DE9F04F7A
:101590000D6885B0002D00F08E804FF00009DFF857
:1015A000DCC14B466F4FDFF8D881DFF8D8E103E0AC
:1015B000013335FA03F27ED001229A4002EA050691
:1015C000B242F5D14C68122C00F0B88000F2838052
:1015D000022C00F0AF8071D9032C00F09F80112CF9
:1015E00002D1CA6802F10409FF2E6ED88246026851
:1015F0009C000F2505FA04FB22EA0B0209FA04F409
:101600002243CAF800204C68E20040F18580DCF8F3
:1016100018A023F003024AF0010ACCF818A0DCF865
:1016200018A002F180420AF0010ACDF80CA002F5E0
:10163000803203F0030ADDF80CB04FEA8A0AD2F8D0
:1016400008B005FA0AF52BEA05050195464DA842B2
:1016500013D005F58065A84274D0444DA84260D0EF
:10166000434DA8420CBF4FF0030B4FF0040B019DFC
:101670000BFA0AFA45EA0A050195019D95603A6858
:10168000E5034CBF3243B2433A607A68A5034CBFCE
:101690003243B2437A60BA68E5024CBF3243B24388
:1016A000BA60A402FA6834D51643FE600D680133AF
:1016B00035FA03F280D105B0BDE8F08FC4B1012C3A
:1016C00092D1FF2ED1F80C9090D99C004268203C1A
:1016D00000F1040A8DE744450AD00ED9744507D0BD
:1016E000244DAC4204D0A5F58015AC427FF47CAF0C
:1016F0008C6884BB4FF0040976E71F4DAC42F7D0ED
:1017000005F58035AC427FF46FAF8C68002CF1D0CA
:1017100021E022EA0606FE600D6849E74FF0000965
:1017200062E74FF0020B019D0BFA0AFA45EA0A053F
:101730000195A2E7CA6802F1080955E7CA6802F1F3
:101740000C0951E74FF0010B019D0BFA0AFA45EA2B
:101750000A05019591E7012C0CBF026142614FF02F
:10176000080941E700040140000801400010014061
:10177000001401400000321000001110001002405F
:1017800000002110000031108368194214BF0120AD
:101790000020704702B90904016170472DE9F0414A
:1017A00005460E46174698467A1C2C6803D00AE078
:1017B00063695B0527D4606926EA000080B20028CF
:1017C000F6D1BDE8F081606926EA000080B2002809
:1017D000F7D06369590516D4FFF75CFEA0EB08004B
:1017E000B84201D8002FDFD1002220232A6385F8D8
:1017F0003D3085F83E202B6C85F83C2043F02003DB
:101800002B640120DDE700226FF480602021236833
:1018100043F40073236060612A6385F83D1085F806
:101820003E202B6C85F83C2043F004032B64012000
:10183000BDE8F0812DE9F0430446006883B00568F7
:101840000A9E45F480750560751C0F4690469946C2
:1018500012D14369DB07FCD507F0FE0707610B9B3C
:101860004FF0FF3256492046FFF798FF002855D029
:10187000012003B0BDE8F0834369D9070BD4FFF71B
:1018800009FE0B9BC01A86426FD3002E6DD02068D4
:101890004369DA07F3D507F0FE0707610B9B324671
:1018A00047492046FFF77AFF0028E1D123680190DD
:1018B0005A6901929A690192019A5A6912060ED4E4
:1018C0005A69570537D4FFF7E5FD0B9BC01A8642CE
:1018D00067D3002E65D023685A691506F0D5B9F193
:1018E000010F14D04FEA18221A615A6911060ED45A
:1018F0005A6952051FD4FFF7CDFD0B9BC01A8642D3
:101900004FD3002E4DD023685A691706F0D500201A
:101910005FFA88F21A6103B0BDE8F0832368019092
:101920005A6901929A690192019A5A6910062BD458
:101930005A695105F9D500226FF480602021586161
:10194000226384F83D1084F83E20236C84F83C2008
:1019500043F004032364236C042B89D12268012003
:10196000136843F40073136083E70022202322638B
:1019700084F83D3084F83E20236C84F83C2043F00A
:1019800020032364012074E7B9F1010FBFD04FEAAF
:1019900018221A615A691506B9D45A695005F9D541
:1019A000C9E700222023226384F83D3084F83E20DA
:1019B000236C84F83C2043F020032364CBE700BF72
:1019C000020001002DE9F0430446006883B0066878
:1019D0000A9D46F48066066006680F4646F48076E7
:1019E000691C0660904699460B9E13D14369D9073E
:1019F000FCD5FFB207F0FE0303614FF0FF32334620
:101A000074492046FFF7CAFE002875D0012003B0B4
:101A1000BDE8F0834369DA070AD4FFF73BFD801B7A
:101A2000854277D3002D75D020684369DB07F4D554
:101A3000FFB207F0FE0303612A463346654920469C
:101A4000FFF7ACFE0028E1D1236801905A690192AA
:101A50009A690192019A5A6912060FD45A6952057D
:101A600030D4FFF717FD801B8542C0F0A580002D04
:101A700000F0A28023685A691006EFD5B9F1010F72
:101A800015D04FEA18221A615A6911060FD45A6903
:101A9000500517D4FFF7FEFC801B8542C0F08C80F8
:101AA000002D00F0898023685A691106EFD55FFA8E
:101AB00088F2681C1A615CD15A69120638D45A69D6
:101AC0005005F9D500226FF480602021586122630F
:101AD00084F83D1084F83E20236C84F83C2043F0C9
:101AE00004032364236C042B90D122680120136823
:101AF00043F4007313608AE7236801905A690192E6
:101B00009A690192019A5A69110625D45A695205B7
:101B1000F9D5D7E700222023226384F83D3084F8EA
:101B20003E20236C84F83C2043F0200323646DE7BF
:101B30001A6842F480721A605A69D207FCD547F0DD
:101B400001071F612A46334620462249FFF726FE39
:101B5000003018BF01205AE7B9F1010FA7D04FEAB2
:101B600018221A615A691206A1D45A695005F9D58A
:101B7000A8E75A6911060CD45A695105A2D4FFF797
:101B800089FC801B854217D3B5B123685A691206B8
:101B9000F2D51A6842F480721A605A69D007CED41E
:101BA000FFF778FC801B8542B4D3002DB2D02368A8
:101BB0005A69D107F4D5C2E700222023226384F8B2
:101BC0003D3084F83E20236C84F83C2043F0200311
:101BD000236487E702000100002800F0AA80F8B51E
:101BE00090F83D30044603F0FF02002B00F08A809D
:101BF0002423226884F83D30136823F00103136026
:101C000001F0C4FA62684C4B9A424BD84B4B984255
:101C100076D9431E5200B3FBF2F240F6FC754849F8
:101C20002368A1FB00105968800C21F03F0101439B
:101C30005960196A013021F03F0108431862D969DF
:101C4000501C21F44F41284221F0FF015FD10420B4
:101C5000002520260843D8611968D4E9072021F01F
:101C6000C00102430A431A609968D4E9030221F4CF
:101C7000034121F0FF0102430A439A60D968D4E985
:101C8000052021F0FF0102430A43DA601A68284662
:101C900042F001021A60256484F83D60256384F8EF
:101CA0003E50F8BD274B98422AD94FF49671244DE7
:101CB0002368A5FB0065AD0C01FB05F15E68224FB2
:101CC00026F03F06A7FB017135435D601D6A890957
:101CD00025F03F05013129431962D969A56821F42E
:101CE0004F41013821F0FF01A5B902EB4202B0FBE0
:101CF000F2F00130C0F30B00C8B140F40040A7E798
:101D00000120F8BD80F83C2003F044FA70E7C0F3EE
:101D10000B009DE702EB820202EB8202B0FBF2F0C5
:101D20000130C0F30B0010B140F4404090E70120B7
:101D30008EE70120704700BFA08601007F841E004F
:101D400083DE1B43FF083D00D34D62102DE9F047B1
:101D5000044682B099460F4690460A9DFFF79AFBCB
:101D600094F83D30202B04D00227384602B0BDE85D
:101D7000F087064605E0FFF78DFB801B192800F26F
:101D8000CC8022689369DB4313F0020AF3D094F805
:101D90003C30012BE8D00121136884F83C10DB07AC
:101DA00066D500214FF0210C1020136823F4006346
:101DB00013608C4B84F83DC084F83E002164A4F885
:101DC0002A90618DE362E36AC4F82480082B2185A0
:101DD00007D0012B05D013F5803F02D0236B122BC7
:101DE00003D1136843F480731360691C40F0B7801B
:101DF0005369D807FCD52369B3F5804F3CD107F070
:101E0000FE07176133462A4677492046FFF7C6FC8E
:101E1000074640BB236801905A6901929A69019272
:101E2000019AB4F828C0BCF1000F00F0B980681C1A
:101E300034D15A69120646D45A695005F9D50022A0
:101E40006FF4806020215861226384F83D1084F88B
:101E50003E20236C84F83C2043F004032364236C6D
:101E6000042B00F0A9800127384602B0BDE8F087B6
:101E700013680B43136094E7FB1103F0060343F070
:101E8000F0031361594933462A462046FFF786FC82
:101E90000028E8D12368FFB21F61B3E75A69110631
:101EA00011D45A695105CAD4FFF7F4FA801B854250
:101EB000C0F08980002D00F0868023685A691206E0
:101EC000EFD5B4F828C0D4F824E00CF1FF32704606
:101ED00010F8011B92B21961618D6062013989B2FB
:101EE00061855969228549070ED56AB19EF801209E
:101EF000ACF1020C1A61618D0EF10202013989B256
:101F0000A4F828C0626261856A1C14D15A6951071D
:101F100087D45A695205F9D591E72023C4F830A037
:101F200084F83D3084F83EA0236C84F83CA043F054
:101F30002003236418E75A6950073FF572AF5A69C6
:101F400050053FF57CAFFFF7A5FA801B85423AD3D9
:101F5000002D38D023685A695107F0D561E75369DD
:101F6000DB073FF548AFFFF795FA801B854205D3A5
:101F700025B122685369D807F5D53CE7012700222F
:101F800020233846226384F83D3084F83E20236CB9
:101F900084F83C2043F02003236402B0BDE8F087BE
:101FA00020211A6842F400721A6084F83D1084F807
:101FB0003CC084F83EC0D8E622680127136843F489
:101FC00000731360D1E600222023226384F83D30A1
:101FD00084F83E20236C84F83C2043F020032364E3
:101FE0003DE700BF0000FFFF020001000800010004
:101FF0002DE9F047044686B099460F4690460E9D5F
:10200000FFF748FA94F83D30202B04D002273846D9
:1020100006B0BDE8F087064605E0FFF73BFA801BF7
:10202000192800F2888022689369DB4313F0020AC2
:10203000F3D094F83C30012BE8D00121136884F8E8
:102040003C10DB0754D5102000214FF0220C136800
:1020500023F4006313609A4B84F83DC084F83E007B
:102060002164A4F82A90608DE362E16A136808296C
:1020700043F48063C4F824802085136007D00129CD
:1020800005D011F5803F02D0236B112B03D11368CB
:1020900043F480731360691C5BD15369D807FCD586
:1020A0002369B3F5804F27D147F00107FFB21761CD
:1020B00033462A4683492046FFF770FB074600282F
:1020C00034D1228D2368002A6AD101905A69019285
:1020D0009A690192019A1A6842F400721A60002308
:1020E000202284F83C3084F83D2084F83E308EE78E
:1020F00013680B431360A6E74FEAE71808F00608D9
:1021000048F0F0031361704933462A462046FFF732
:1021100045FB58B92368FFB21F612A463346694917
:102120002046FFF73BFB002800F0F68001273846E9
:1021300006B0BDE8F0872023C4F830A084F83D3015
:1021400084F83EA0236C84F83CA043F02003236471
:102150005CE75369DB07A3D4FFF79CF9801B85423A
:102160000FD375B122685369D807F5D598E75A6936
:10217000520600F183805A69D50600F12481FFF7E9
:1021800089F900222023226384F83D3084F83E2020
:10219000236C84F83C2043F0200323640127C6E726
:1021A000012A00F02581022A00F0CA801968032A5A
:1021B00041F480611960049059690491996904910E
:1021C00004994CD8012A00F0EB80022A00F08B80A1
:1021D000681C40F0C8805A695107FCD51A6822F47F
:1021E00080621A6072B62268636A12691A70638D1F
:1021F000616A228D013B0131013A9BB26162228505
:102200006385681C236840F0BD805A695107FCD57E
:102210001A68616A42F400721A601B690B70638D60
:10222000616A228D013B9BB20131013A6385616293
:10223000228562B62268636A12691A70638D228DE4
:10224000616A013B013A01319BB292B261626385DE
:102250002285002A3FF443AF032A2368B2D955B937
:1022600085E75A69D10600F1AE80FFF713F9801BAC
:10227000854286D323685A695006F2D51A69636A83
:102280001A70618D2368013989B2228D6185586980
:10229000616A013A92B201F1010C40072285C4F84B
:1022A00024C0D6D51B694B70228D638D616A013ABB
:1022B000013B92B29BB20131228563856162C8E71E
:1022C0000000FFFF02000100080001005B695B07DE
:1022D0000ED4FFF7DFF8801B8542FFF452AF002DCC
:1022E0003FF44FAF2368691CF0D15A695207FCD5FF
:1022F00072B62368616A1A6842F400721A601B6938
:102300000B70638D616A228D013B0131013A9BB2F2
:102310006162228563858CE7226805905369691C98
:10232000059393690593059B136843F480731360C9
:1023300071D15369D807FCD548F0F1031361B7E6B2
:102340001A6842F400621A6072B6236803905A69F0
:1023500003929A690392039A1A6822F480621A60BF
:1023600062B6228D75E75A6952073FF537AFFFF71E
:1023700091F8801B8542FFF404AF002D3FF401AFBC
:10238000236825E75A6952073FF542AFFFF782F805
:10239000801B8542FFF4F5AE002D7FF432AFF0E6EE
:1023A00055B920E05A69D2060DD4FFF773F8801BA7
:1023B0008542FFF4E6AE23685A695106F2D51A69E0
:1023C000636A1A7070E700226FF0100020215861D4
:1023D000226384F83D1084F83E20236C84F83C206E
:1023E0002364012713E65A6950067FF5C4AEE6E779
:1023F0001A6822F480621A6072B6236802905A69E1
:1024000002929A690292029A1A6842F400721A6061
:1024100062B6228D1DE75369DB078DD4FFF73AF8CA
:10242000801B8542FFF4ADAE002D3FF4AAAE2268BA
:102430005369DF07F2D57FE72DE9F04F044683B0FB
:102440009A460F469046BDF834900E9DFFF722F84D
:1024500094F83D30202B04D00227384603B0BDE865
:10246000F08F064605E0FFF715F8801B192800F2EB
:10247000B98022689369DB4313F0020BF3D094F820
:102480003C30012BE8D00121136884F83C10D807B8
:1024900040F1A4804FF0210E4FF0400C0020116855
:1024A000534621F40061116084F83DE084F83EC099
:1024B0002064A4F82A90B4F82AC039460C9FA0F5ED
:1024C000803067624246CDE90056E062A4F828C039
:1024D0002046FFF7AFF90746F8B9228D2368002A96
:1024E00049D06A1C1ED15A6911062ED45A69520568
:1024F000F9D500226FF4806020215861226384F8AE
:102500003D1084F83E20236C84F83C2043F0040303
:102510002364236C042B00F090800127384603B01D
:10252000BDE8F08F5A6910060FD45A695105E0D4FE
:10253000FEF7B0FF801B8542C0F08680002D00F0C2
:10254000838023685A691206EFD5D4F824E0B4F8E2
:102550002880F4461CF8012B08F1FF311A61628DC6
:1025600089B2013A92B262855869C4F824C0400722
:10257000218530D509BB681C42D15A6951074FD417
:102580005A695205F9D500226FF480602021586104
:10259000226384F83D1084F83E20236C84F83C20AC
:1025A00043F004032364236C042BB6D12268012773
:1025B000136843F4007313604FE79EF80120A8F1FD
:1025C00002011A61608D89B201380EF1020280B2F7
:1025D000218562626085002983D1CCE713680B43B3
:1025E000136057E72023C4F830B084F83D3084F8F6
:1025F0003EB0236C84F83CB043F0200323642BE707
:102600005A6950070CD45A695105BCD4FEF742FFF1
:10261000801B854226D32DB323685A695207F2D511
:10262000002120201A6842F400721A6084F83D00EC
:1026300084F83C1084F83E100FE7226801271368E5
:1026400043F40073136008E700222023226384F818
:102650003D3084F83E20236C84F83C2043F0200376
:10266000236456E700222023226384F83D3084F857
:102670003E20236C84F83C2043F02003236492E73F
:102680002DE9F04F044687B09A460F469046BDF8B4
:102690004490129DFEF7FEFE94F83D30202B04D0AE
:1026A0000227384607B0BDE8F08F064605E0FEF782
:1026B000F1FE801B192800F2DF8022689369DB435A
:1026C00013F0020BF3D094F83C30012BE8D0012139
:1026D000136884F83C10D8073AD54FF0220E4FF01B
:1026E000400C00201168534621F40061116084F809
:1026F0003DE084F83EC02064A4F82A90B4F82AC0D3
:102700003946109FA0F5803067624246CDE90056F9
:10271000E062A4F828C02046FFF754F907460028D5
:1027200040F0B880228D2368B2B902905A690292B3
:102730009A690292029A1A6842F400721A6000239F
:10274000202284F83C3084F83D2084F83E30A8E70D
:1027500013680B431360C0E7012A00F03181022A9D
:1027600000F0C1801968032A41F480611960059066
:10277000596905919969059105994BD8012A00F08D
:10278000EF80022A00F09680681C40F0BF805A69F2
:102790005107FCD51A6822F480621A6072B622686A
:1027A000636A12691A70638D616A228D013B01317F
:1027B000013A9BB2616222856385681C236840F000
:1027C000B1805A695107FCD51A68616A42F40072F7
:1027D0001A601B690B70638D616A228D013B9BB28D
:1027E0000131013A63856162228562B62268636ABB
:1027F00012691A70638D228D616A013B013A0131C1
:102800009BB292B2616263852285002A97D0032A27
:102810002368B3D95DB9C5E05A69D10600F1B28029
:10282000FEF738FE801B8542C0F0888023685A6915
:102830005006F1D51A69636A1A70618D23680139EF
:1028400089B2228D61855869616A013A92B201F1BB
:10285000010C40072285C4F824C0D6D51B694B70F3
:10286000228D638D616A013A013B92B29BB20131C4
:10287000228563856162C8E72023C4F830B084F8FC
:102880003D3084F83EB0236C84F83CB043F0200324
:10289000236405E70127384607B0BDE8F08F5B6980
:1028A0005B070CD4FEF7F6FD801B854246D3002D56
:1028B00044D02368691CF2D15A695207FCD572B61C
:1028C0002368616A1A6842F400721A601B690B700F
:1028D000638D616A228D013B0131013A9BB26162D5
:1028E0002285638581E71A6842F400621A6072B635
:1028F000236804905A6904929A690492049A1A68A7
:1029000022F480621A6062B6228D7EE75A6952070D
:102910003FF540AFFEF7BEFD801B85420ED36DB183
:10292000236831E75A6952073FF54EAFFEF7B2FD13
:10293000801B854202D3002D7FF43FAF0127002288
:1029400020233846226384F83D3084F83E20236CEF
:1029500084F83C2043F02003236407B0BDE8F08FE7
:102960004DB929E05A69D2060CD4FEF793FD801BBD
:102970008542E3D323685A695106F3D51A69636A1D
:102980001A706DE700226FF0100020215861226359
:1029900084F83D1084F83E20236C84F83C202364A6
:1029A00001277EE65A6952063FF544AF5A69D506BB
:1029B000E8D4FEF76FFDC1E75A695006F6D5DDE7AA
:1029C0001A6822F480621A6072B6236803905A690A
:1029D00003929A690392039A1A6842F400721A6089
:1029E00062B6228D11E700BF2DE9F047044682B0A0
:1029F0001E4689469246FEF74DFD94F83D30202B49
:102A000003D0022002B0BDE8F087054605E0FEF7DE
:102A100041FD401B192800F2B18023689A69D24316
:102A200012F00207F3D094F83C20012AE9D00121EA
:102A30001A6884F83C10D00740F19C8024200021C3
:102A40004FF00108A0271A6809F0FE0922F400627D
:102A50001A60604A84F83D002164E2621A68711CC1
:102A600042F480721A6062D15A69D107FCD5C3F86A
:102A70001090FEF70FFD2368054659695A6994F8CE
:102A80003D0001F00201A02802F4806218D00A4340
:102A900016D1002E3BD001E00A4311D1FEF7FAFC1B
:102AA000401B8642236838BF84F83D7059695A69D3
:102AB00094F83D0001F00201A02802F48062EBD1FD
:102AC000202284F83D205A69920764D46FF4806113
:102AD0001A6842F400721A6059619A69910708D520
:102AE000FEF7D8FC401B192833D823689A6992074F
:102AF000F6D408F10108D045B0D3202200230120EC
:102B000084F83D2084F83C307CE70A43D8D1FEF7B6
:102B1000C1FC236884F83D7059695A6994F83D00F6
:102B200001F00201A02802F48062EED1C8E75A69E0
:102B3000D2079CD4FEF7AEFC401B864209D346B1B7
:102B400023685A69D00792D4FEF7A4FC401B864242
:102B5000F5D2002220230120226384F83D3084F83E
:102B60003E20236C84F83C2043F02003236402B011
:102B7000BDE8F0871A680A431A605FE720232763DD
:102B800084F83D3084F83E70236C84F83C7043F048
:102B90002003236435E700211A6842F400721A60AA
:102BA00001915A6901929A690192019A9B699E0763
:102BB00008D5FEF76FFC401B1928CAD823689B690B
:102BC0009807F6D42023002084F83D3084F83C0098
:102BD00018E700BF0000FFFF006C7047002800F0FE
:102BE000C4812DE9F041036882B0DD07044635D584
:102BF000A6494A6802F00C02042A00F0EF804A68F5
:102C000002F00C02082A00F0E5806368B3F5803F0B
:102C100010D0002B00F00D81B3F5A02F00F09081B3
:102C20009A4B1A6822F480321A601A6822F48022C1
:102C30001A6004E0954A136843F480331360FEF78A
:102C400029FC924D064605E0FEF724FC801B642813
:102C500000F2EB802B689A03F6D523689F0728D5EE
:102C60008A4A516811F00C0F00F08E80516801F013
:102C70000C01082900F084802369002B00F02581D5
:102C80000122834B814D1A60FEF704FC064605E0E5
:102C9000FEF700FC801B022800F2C7802B68980713
:102CA000F6D52B68626923F0F80343EAC2032B6070
:102CB00023681A071FD45D0741D5744BDA69D00029
:102CC0007DD50025734B1A68D10540F19D80E368DE
:102CD000012B00F00B81002B00F0C580052B6B4B06
:102CE0001A6A00F03A8122F001021A621A6A22F08E
:102CF00004021A62FFE0A369002B50D00122664B48
:102D0000624D1A60FEF7C6FB064605E0FEF7C2FB01
:102D1000801B022800F289806B6A9B07F6D55F4B07
:102D20005F4A1B68A2FB03235B0A019300BF019B60
:102D30005A1E0192002BF9D123685D07BDD4E069CA
:102D4000D0B1524D6A6802F00C02082A00F0E78008
:102D500002284FF00001534A00F009811160FEF78C
:102D600099FB2C46054604E0FEF794FB401B022825
:102D70005BD823689B01F7D4002002B0BDE8F08146
:102D80005268D6033FF578AF404A126895072FD5B1
:102D90002269012A2CD0012002B0BDE8F0813E4A10
:102DA0003A4D1360FEF776FB064604E0FEF772FB31
:102DB000801B022839D86B6A9F07F7D4BCE7DA6911
:102DC000012542F08052DA61DB6903F08053009301
:102DD000009B77E74A68D0037FF517AF2B4A12684C
:102DE00091037FF53BAF6268002A7FF437AFD2E7EB
:102DF000264960690A6822F0F80242EAC0020A60C5
:102E00001A077FF558AF76E71A681E4642F48072BB
:102E10001A60FEF73FFB07463368DA053FF557AF08
:102E2000FEF738FBC01B6428F6D9032002B0BDE8CA
:102E3000F08103F1804303F504331A681D4622F440
:102E400080321A601A6822F480221A60FEF722FB90
:102E5000064604E0FEF71EFB801B6428E5D82B68BD
:102E60009B03F7D4F9E603F1804303F504331A6AB0
:102E70001E4622F001021A621A6A41F2883822F0D4
:102E800004021A62FEF706FB074612E00010024039
:102E900000004242007000408004424208000020CE
:102EA000D34D621060004242FEF7F4FAC01B404569
:102EB000BBD8336A9807F7D4002D3FF440AF454A9A
:102EC000D36923F08053D36139E7434A414D1360FE
:102ED000FEF7E0FA064604E0FEF7DCFA801B022863
:102EE000A3D82B689907F7D42368E2E6394A136A16
:102EF00043F001031362FEF7CDFA364E804641F2ED
:102F0000883705E0FEF7C6FAA0EB0800B8428CD877
:102F1000336A9B07F6D5002D3FF411AFCFE70128A8
:102F20003FF42BAF6B68226A03F4803191427FF447
:102F300032AF606A03F47013181A18BF01201CE73F
:102F400003F18043A3F53C331A6842F480221A60EF
:102F50001A6842F480321A6071E642F004021A6282
:102F60001A6A42F001021A62C5E701207047116037
:102F7000FEF790FA064605E0FEF78CFA801B022861
:102F80003FF653AF2B689901F6D4226AB2F5803F21
:102F900005D16B68A16823F400330B436B600125F6
:102FA0000C4B606A5968024321F474110B480A43C0
:102FB0005A6005601C46FEF76DFA054605E0FEF70F
:102FC00069FA401B02283FF630AF23689A01F6D514
:102FD000D2E600BF001002400000424260004242C0
:102FE00078B15F4A136803F007038B420BD2136872
:102FF00023F007030B431360136803F007038B42AE
:1030000001D0012070472DE9F041036886B09D078B
:1030100014D55C0704D5534C626842F4E0626260E8
:103020001A0704D54F4C626842F4605262604D4CFE
:103030008568626822F0F0022A436260DF078046FA
:103040000C4621D54268474B012A1B687ED0022AD4
:1030500079D0980728D5434D41F288376B6823F023
:10306000030313436B60FEF715FA064604E0FEF710
:1030700011FA801BB8426CD86B68D8F8042003F0B2
:103080000C03B3EB820FF2D1354A136803F0070348
:10309000A3420DD9136823F0070323431360136879
:1030A00003F00703A34203D0012006B0BDE8F0817E
:1030B000D8F80030590707D52A49D8F80C004A68D3
:1030C00022F4E06202434A601A0708D5254AD8F87C
:1030D0001010536823F4605343EAC103536040F275
:1030E0000122214B06ACADF804200FCB04E90F0000
:1030F0001C494A6802F00C03082B11D01B4B194ADB
:103100001B4852681B49C2F30312805C1A4AC34031
:1031100008681360FEF77CF9002006B0BDE8F08176
:10312000C2F38343234413F8100CD30313D54A6826
:103130000E4BC2F3404203FB00F3224412F8142C5E
:10314000B3FBF2F3DBE79D0185D4ADE79E0382D4A8
:10315000AAE70320A9E7094B03FB00F3CFE700BF71
:10316000002002400010024064B1000800127A0002
:10317000ACBD0008040000200800002000093D004C
:10318000014B1868704700BF08000020044B054938
:103190005B68054AC3F30223CB5C1068D8407047D4
:1031A00000100240BCBD0008080000202DE9F041DD
:1031B0000446006882B0C50727D53C4BDA69D100C8
:1031C0003AD53B4B00251A68D20543D5374960688C
:1031D0000A6A12F440720FD000F4407393420BD08D
:1031E000012700260B6A334A23F4407017601660EB
:1031F0000862D80749D460682C4A136A23F44073E4
:10320000034313622068002D38D1830706D5274A6F
:10321000A168536823F440430B43536010F010003F
:1032200007D00020214AE168536823F480030B4350
:10323000536002B0BDE8F081DA69012542F08052A6
:10324000DA61DB6903F080530193019B184B1A6824
:10325000D205BBD41A681E4642F480721A60FEF78B
:1032600019F907463368DB05B0D4FEF713F9C01B24
:103270006428F7D9032002B0BDE8F081D36923F0B8
:103280008053D3618307C9D5C1E70E46FEF702F923
:1032900041F288378046336A9A07ACD4FEF7FAF8D1
:1032A000A0EB0800B842F6D9E4E700BF00100240E6
:1032B00000700040400442420368DA6842F00102B4
:1032C000DA609A6802F00702062A03D01A6842F010
:1032D00001021A6000207047002847D090F83D3066
:1032E00070B503F0FF02044653B302232268204E58
:1032F00084F83D30B24213686068E168A56924D063
:10330000B2F1804F13D0A6F59436B2420FD006F535
:103310008066B2420BD023F080032B431360D1624E
:10332000906201230020536184F83D3070BDA6688F
:1033300023F070033343266923F440733343EAE7F1
:1033400080F83C2001F05AFFCFE7A66823F0700315
:103350003343266923F44073334323F080032B4324
:103360001360D162906263691363DAE701207047EA
:10337000002C01400122036801F01F01186A02FAC3
:1033800001F120EA01001862186A0A4A01439342D7
:1033900019620AD09A6802F00702062A03D01A6856
:1033A00042F001021A60002070475A6C42F4004259
:1033B0005A64EFE7002C014000287DD02DE9F84643
:1033C00090F83D3004460D4603F0FF02002B5DD01F
:1033D0000222236884F83D209A68384E22F4804205
:1033E00022F007029A60B3421A686168E068A76930
:1033F00051D0B3F1804F40D0A6F59436B3423CD0C3
:1034000006F58066B34238D022F080023A431A6053
:10341000D862996201265E61D3F808C09F69A868E6
:10342000A96927F440772A6927F0030740EA0121B8
:103430003943EF69E868120142EA0722D5F820A073
:10344000D5F814901F6A02436868D5F800E021F4AB
:103450007C4140EA091021F0FC0142EA0A3227F0DF
:10346000220707434CEA0E050A439D6000209A613B
:103470001F6284F83D60BDE8F886A66822F07002FD
:103480003243266922F440723243BDE780F83C2083
:1034900001F0CAFE9CE7A66822F07002324326695A
:1034A00022F44072324322F080023A431A60D8621A
:1034B000996262691A63ADE701207047002C0140F0
:1034C0000368F9B104292AD01A6A22F001021A62AB
:1034D0001A6A42F001021A621A6A22F010021A6293
:1034E0001A6A42F010021A62DA6842F00202DA60E6
:1034F000DA6842F00402DA601A68002042F0010241
:103500001A6070471A6A22F001021A621A6A42F0BF
:1035100001021A62DA6842F00202DA60ECE71A6A23
:1035200022F010021A621A6A42F010021A62DA6875
:1035300042F00402DA60DFE790F83C30012B00F043
:10354000C280F0B40223012480F83D3080F83C4072
:103550000C2A31D8DFE802F00730303064303030E8
:103560008E303030390003688F681D6A0E6825F090
:1035700001051D621A6A6E4DD3F804C09C6922F0E1
:10358000020224F07304AB4242EA070244EA060452
:1035900000F09B804D68C3F804C09C615D631A62B3
:1035A0009C690D6944F008049C61996921F004014B
:1035B00099619A692A439A610023F0BC012280F83C
:1035C0003C3080F83D201846704703688F681D6ABC
:1035D0000E6825F480551D621A6A554DD3F804C053
:1035E000DC6922F4005224F4E644AB4242EA07329A
:1035F00044EA062400F086804D68C3F804C0DC610C
:103600001D641A62DC690D6944F40064DC61D969E7
:1036100021F48061D961DA6942EA0522DA61CBE7F7
:1036200003688F681D6A0E6825F010051D621A6A0E
:103630003F4DD3F804C09C6922F0200224F4E644F4
:10364000AB4242EA071244EA06244CD04D68C3F864
:1036500004C09C619D631A629C690D6944F4006416
:103660009C61996921F4806199619A6942EA052215
:103670009A61A1E703688F681D6A0E6825F480755A
:103680001D621A6A2A4DD3F804C0DC6922F4007264
:1036900024F07304AB4242EA072244EA060437D01E
:1036A0004D68C3F804C0DC61DD631A62DC690D6932
:1036B00044F00804DC61D96921F00401D961DA69B8
:1036C0002A43DA6178E702207047CF6822F00802C7
:1036D000D1E905562CF4407C3A43354322F00402EC
:1036E00045EA0C0C56E7CE6822F08002D1E9057558
:1036F0002CF4406C42EA06123D4322F040024CEAB0
:10370000850CA3E74D692CF4804C4CEA851C73E7CB
:10371000CE6822F40062D1E905752CF4405C42EADF
:1037200006223D4322F480624CEA051CB8E700BF44
:10373000002C014090F83C20012A1AD0022270B4DB
:10374000034600250126046880F83D206068D1E921
:10375000002120F070001043A268606022F0800217
:103760000A43A260284683F83D6083F83C5070BC51
:1037700070470220704700BF0C4A0D4B92689B684F
:10378000134313F0010308D10A68416842B121F4E0
:1037900070210A434260184670470123184670475B
:1037A000134621F4702141601846704700240140FF
:1037B00000280140836813F001030FD1426810B460
:1037C0004C6822F48072224342608268096822F4C5
:1037D00000620A43826010BC1846704701231846F5
:1037E000704700BF8368DB071BD430B44C680246C7
:1037F000CCB9436823F46843436093680D6823F4AD
:103800006023C86823F4817309692B4303430B4386
:103810009360D36A002023F470032343D36230BC47
:1038200070470120704740688B6820F4684020434F
:1038300018435060E1E700BF2DE9F04F0C68C4F376
:103840000F2494FAA4F3B3FA83F334FA03F276D094
:103850004FF0010B4FF00F0C4FF0030E4FF0040927
:103860005EE040F201129A40160E92FAA2FABAFAFB
:103870008AFA92FAA2F8B8FA88F885594F684FEA9E
:103880008A0A0CFA0AFA4FEA880807FA08F825EAC1
:103890000A0545EA08058551D0F80C80150A95FA05
:1038A000A5FABAFA8AFA28EA05080F694D6807FAF4
:1038B0000AFA25F0080548EA0A08012DC0F80C802C
:1038C0002AD192FAA2FABAFA8AFA92FAA2F8B8FAC5
:1038D00088F885598F684FEA8A0A0EFA0AFA4FEA81
:1038E000880825EA0A0507FA08F845EA0805855117
:1038F00092FAA2F8B8FA88F892FAA2F2B2FA82F230
:10390000CF684FEA8808920009FA08F825EA080506
:1039100007FA02F215438551013334FA03F20ED04F
:103920000BFA03F22242F7D0072B9AD94FF0011578
:10393000A3F1080205FA02F242F0806294E7002047
:10394000BDE8F08F026812F0400225D1F0B4D1E951
:103950000035044688682B43CD68034308692B4330
:103960004D698E690343CF6920682B4333430E6A48
:103970003B4320F47F40334320F0BF0003432360E8
:103980006368B6F5005F23F0040343EA1543636000
:1039900004D0F0BC10467047012070478B8C104655
:1039A0002361F0BC704700BF836810B4DC070AD401
:1039B000836843F001038360836843F004038360FA
:1039C00083685A07FCD46FF004036FF001046FF0B2
:1039D00002024163046002600360836843F4A00351
:1039E000836003689B07FCD54FF4A572074CC16C3C
:1039F000236889B2C3EB03130B441B0902FB03F0DA
:103A00002360C0F30F3010BC704700BF400100209E
:103A100038B50724094D64233222A0212846FEF739
:103A2000E3FF40B10220FDF73BFD601E10F0FF04F4
:103A3000F1D1204638BD012038BD00BFA8010020CB
:103A40002DE9F04F00241746814688462646DFF8C8
:103A500078A085B095B22B1B04EB0902BC429BB247
:103A600092B208EB04012BD20F2BAB464FF064004F
:103A700012D910230091CDE90130A0210123504635
:103A8000FEF7DAFC04F1100B80B91FFA8BFB022061
:103A90005C46FDF705FDDEE7CDE90013029001234A
:103AA000A0215046FEF7C8FC0028F0D0052E06F1F4
:103AB000010601D8F6B2CEE7002005B0BDE8F08FD0
:103AC000012005B0BDE8F08FA80100202DE9F04FDE
:103AD00000241746814688462646DFF878A085B040
:103AE00095B22B1B04EB0902BC429BB292B208EBCD
:103AF00004012BD20F2BAB464FF0640012D91023D8
:103B00000091CDE90130A02101235046FEF7B8FD18
:103B100004F1100B80B91FFA8BFB02205C46FDF705
:103B2000BFFCDEE7CDE9001302900123A02150463F
:103B3000FEF7A6FD0028F0D0052E06F1010601D8FB
:103B4000F6B2CEE7002005B0BDE8F08F012005B049
:103B5000BDE8F08FA801002000200D4A0D4BD16870
:103B600021F08071D160D16841F08071D1601A6814
:103B700022F001021A601A6842F001021A605860CD
:103B800000BF00BF00BF5868B0FA80F0400970471E
:103B9000F0ED00E0001000E0084B82B09A68920758
:103BA000FCD51873D968054A019101999B68019366
:103BB000019B93681B06FCD402B07047003800409C
:103BC00070B59EB0FFF7C8FFA048012203684FF40C
:103BD000805143F0400303609D4C00F55040FDF7D9
:103BE000D9FD01224FF480619A48FDF7D3FD656845
:103BF000FFF7C6FA4FF4FA73974AA2FB0020800C35
:103C000003FB00F36268521B9A42FBD300224FF47D
:103C100080619048FDF7BEFD6568FFF7B1FA4FF48B
:103C2000FA738D4A8A4CA2FB0020800C03FB00F340
:103C30006268521B9A42FBD301224FF4806185488F
:103C4000FDF7A8FD01224FF480518248FDF7A2FD47
:103C50006468FFF795FA4FF4FA737F4A7C49A2FB38
:103C60000020800C03FB00F34A68121B9A42FBD32E
:103C700000224FF480517748FDF78CFD00224FF46D
:103C800000717448FDF786FD704B9A689407FCD567
:103C900011221A73DA686D491B921B9A9B681B9359
:103CA0001B9B8B681806FCD4694C14256668FFF7CB
:103CB00067FA694BA3FB0030800C05FB00F56368D5
:103CC0009B1BAB42FBD300224FF400716148FDF710
:103CD00061FD5E4B9A689207FCD5B1221A73DA68CF
:103CE0005A491A921A9A9B681A931A9B8B681B0658
:103CF000FCD401224FF400715648FDF74BFD534BA5
:103D00009A689607FCD500221A73DA684F4919920F
:103D1000199A9B681993199B8B681D06FCD44B4B11
:103D20009A689407FCD506221A73DA6847491892F4
:103D3000189A9B681893189B8B681806FCD4434B01
:103D40009A689107FCD503221A73DA683F491792E3
:103D5000179A9B681793179B8A6812F08002FBD111
:103D60004FF400713B48FDF715FD384B9A689207F8
:103D7000FCD5B2221A73DA6834491692169A9B68F7
:103D80001693169B8B681B06FCD401224FF400711E
:103D90003048FDF7FFFC2D4B9A689607FCD50522AD
:103DA0001A73DA6829491592159A9B681593159B21
:103DB0008B681D06FCD4254B9A689407FCD53C22E1
:103DC0001A73DA6821491492149A9B681493149B0D
:103DD0008B681806FCD41D4B9A689207FCD53C22D0
:103DE0001A73DA6819491392139A9B681393139BF9
:103DF0008A6812F08002FBD14FF400711548FDF77C
:103E0000C9FC124B9A689607FCD5B3221A73DA687C
:103E10000E491292129A9B681293129B8B681D0690
:103E2000FCD401224FF400710A48FDF7B3FC074BA4
:103E30009A689407FCD505221A73DA68034911922F
:103E4000119A9B681193119B08E000BF0038004055
:103E5000001000E00008014083DE1B438B68180659
:103E6000FCD4924B9A689207FCD53C221A73DA680C
:103E70008E491092109A9B681093109B8B681B06BA
:103E8000FCD48A4B9A689607FCD53C221A73DA68F0
:103E900086490F920F9A9B680F930F9B8B681D06A4
:103EA000FCD4824B9A689407FCD505221A73DA6811
:103EB0007E490E920E9A9B680E930E9B8B68180695
:103EC000FCD47A4B9A689207FCD53C221A73DA68C4
:103ED00076490D920D9A9B680D930D9B8B681E067B
:103EE000FCD4724B9A689507FCD53C221A73DA68A9
:103EF0006E490C920C9A9B680C930C9B8A6812F08A
:103F00008002FBD14FF400716948FDF743FC674B19
:103F10009A689407FCD5B6221A73DA6863490B9243
:103F20000B9A9B680B930B9B8B681806FCD40122A1
:103F30004FF400715E48FDF72DFC5C4B9A689207C8
:103F4000FCD515221A73DA6858490A920A9A9B68B6
:103F50000A930A9B8B681E06FCD4544B9A689507FB
:103F6000FCD502221A73DA6850490992099A9B68B3
:103F70000993099B8A6812F08002FBD14FF400710B
:103F80004B48FDF707FC494B9A689407FCD5B422CF
:103F90001A73DA6845490892089A9B680893089B47
:103FA0008B681806FCD401224FF400714048FDF7DD
:103FB000F1FB3E4B9A689207FCD503221A73DA682C
:103FC0003A490792079A9B680793079B8A6812F001
:103FD0008002FBD14FF400713548FDF7DBFB334B1A
:103FE0009A689607FCD53A221A73DA682F49069226
:103FF000069A9B680693069B8B681D06FCD40122DB
:104000004FF400712A48FDF7C5FB284B9A689407C6
:10401000FCD505221A73DA6824490592059A9B6833
:104020000593059B8A6812F08002FBD14FF4007162
:104030001F48FDF7AFFB1D4B9A689007FCD5202267
:104040001A73DA6819490492049A9B680493049BD2
:104050008A6812F08002FBD14FF400711448FDF71A
:1040600099FB124B9A689107FCD513221A73DA68F0
:104070000E490392039A9B680393039B8A6812F08C
:104080008002FBD14FF400710948FDF783FB074B19
:104090009A689207FCD526221A73DA6803490292BD
:1040A000029A9B680293029B04E000BF0038004024
:1040B000000801408B681B06FCD401224FF40071FC
:1040C0003848FDF767FB384B9A689607FCD5022203
:1040D0001A73DA6834490192019A9B680193019B33
:1040E0008A6812F08002FBD14FF400712D48FDF771
:1040F00051FB2D4B9A689507FCD529221A73DA6873
:1041000029490092009A9B680093009B8C6814F0E8
:104110008004FBD101224FF480512248FDF73AFB85
:1041200022464FF480511F48FDF734FB22464FF4DE
:1041300000711C48FDF72EFB1B4B9A689407FCD5B9
:1041400036221A73DA6818491C921C9A9B681C93D1
:104150001C9B8B681806FCD48025A0241348144BA4
:10416000058001224FF400710E481C80FDF712FB00
:104170000D4B9A689207FCD500221A73DA680A4937
:104180001D921D9A9B681D931D9B8B681B06FCD47A
:1041900001224FF4805103481EB0BDE87040FDF786
:1041A000F9BA00BF0008014000380040EC020020CE
:1041B000EE02002070B5002286B04FF48051044614
:1041C0004D48FDF7E7FA00224FF400714A48FDF729
:1041D000E1FA4A4B9A689507FCD536221A73DA68D9
:1041E00046490192019A9B680193019B8B681806CE
:1041F000FCD4022C62D0032C43D0012C24D0802587
:10420000A0243F483F4B058001224FF400713A48FB
:104210001C80FDF7BFFA394B9A689207FCD5002243
:104220001A73D968354A059105999B680593059BD2
:1042300093681B06FCD401224FF480512E4806B02F
:10424000BDE87040FDF7A6BAA02680252C482D4B6E
:10425000068022464FF4007127481D80FDF79AFA28
:10426000264B9A689207FCD5A0221A73D968234A74
:10427000029102999B680293029B93681E06FCD4EC
:10428000D9E78025A0241E481E4B058001224FF44B
:10429000007119481C80FDF77DFA184B9A68900749
:1042A000FCD5C0221A73D968144A049104999B68FA
:1042B0000493049B93681906FCD4BCE7A0258024D2
:1042C0000F48104B058001224FF400710A481C80F2
:1042D000FDF760FA094B9A689507FCD560221A73BE
:1042E000D968064A039103999B680393039B9368DB
:1042F0001C06FCD49FE700BF0008014000380040C6
:10430000EC020020EE020020F0B507468DB00D460D
:1043100016464FF40071002266481C46FDF73AFA33
:10432000654B9A689207FCD52A221A73DA686249AB
:104330000B920B9A9B680B930B9B8B681806FCD413
:1043400001224FF400715B48FDF724FA5A4B3A0AF8
:1043500099688907FCD51A73DA6857490A920A9A4C
:104360009B680A930A9B8B681806FCD4524BFFB2D9
:104370009A689207FCD51F73DA684F490992099A27
:104380009B680993099B8B681806FCD44A4B320A38
:1043900099688907FCD51A73DA6847490892089A20
:1043A0009B680893089B8B681B06FCD4424BF6B2B3
:1043B0009A689707FCD51E73DA683F490792079AF7
:1043C0009B680793079B8A6812F08002FBD14FF429
:1043D00000713848FDF7DEF9374B9A689607FCD52F
:1043E0002B221A73DA6834490692069A9B68069360
:1043F000069B8B681806FCD401224FF400712D48EF
:10440000FDF7C8F92C4B2A0A99688907FCD51A735D
:10441000DA6829490592059A9B680593059B8B6884
:104420001B06FCD4244BEDB29A689707FCD51D738C
:10443000DA6821490492049A9B680493049B8B6870
:104440001E06FCD41C4B220A99688D07FCD51A73F2
:10445000DA6819490392039A9B680393039B8B685C
:104460001806FCD4144AE4B293689907FCD5147377
:10447000D36811490293029B93680293029B8A6856
:1044800012F08002FBD14FF400710A48FDF782F967
:10449000094B9A689207FCD52C221A73DA680649F0
:1044A0000192019A9B680193019B8B681B06FCD4C7
:1044B0000DB0F0BD00080140003800402DE9F0418A
:1044C00004460D46164682B04FF4805100221F4824
:1044D0004FEA1328DFB2FDF75DF933462A4631462D
:1044E0002046FFF711FF194801224FF40071FDF734
:1044F00051F9281B20D40025154CA668B607FCD519
:1045000084F80C80E3680193019BA3680193019BED
:10451000A6683106FCD4A668B207FCD52773E36809
:104520000093009BA3680093009BA6683306FCD40D
:104530000135ADB28542E0DD01224FF480510348E0
:1045400002B0BDE8F041FDF725B900BF0008014009
:10455000003800402DE9F0410C461546804682B0F7
:1045600000224FF480511E481F0ADEB2FDF712F9F7
:104570002B46424621464046FFF7C6FE4FF40071E7
:1045800001221748FDF706F9291B1FD400241548FE
:104590008568AB07FCD50773C5680195019B8568E5
:1045A0000195019B85682D06FCD48568AA07FCD57A
:1045B0000673C5680095009B85680095009B85681B
:1045C0002B06FCD40134A4B28C42E1DD01224FF46D
:1045D0008051034802B0BDE8F041FDF7DBB800BFF1
:1045E00000080140003800402DE9F04115461F4603
:1045F00080460E46BDF818400A4623462946FFF776
:104600005DFF23463A4629464046FFF757FF2346BB
:104610003A4631464046FFF79DFF23463A4631462B
:104620002846BDE8F041FFF795BF00BF2DE9F04FE8
:1046300089469A460446164685B001904FF480514B
:10464000DDE90E7800222748FDF7A4F853463246EC
:1046500049462046FFF758FE01224FF400712148D9
:10466000FDF798F8D14534D8B44232D81E4CDDF865
:1046700004B05FFA89F55FFA8BF12A463846C047E5
:10468000C0F30721C0B2A2689307FCD52173E2688A
:104690000392039AA2680392039AA2681106FCD4BB
:1046A000A2689207FCD52073E2680292029AA2687F
:1046B0000292029AA2681306FCD40BF101031FFABE
:1046C00083FB5E45D7D209F101091FFA89F9CA4572
:1046D000CDD201224FF48051024805B0BDE8F04F21
:1046E000FDF758B800080140003800402DE9F04FB0
:1046F000A2F1200491B0E5B24FEA132B5F2DDBB29B
:104700000DAD00930646DDE91A890F462B4600F2EF
:10471000E28004EB84017C4A04EB410414442068E9
:104720006168B4F808C003C3A27AA3F800C09A7005
:1047300000224FF480517548FDF72CF8F21D07F167
:104740000B039BB2304692B23946FFF7DDFDF6B25D
:10475000FCB201224FF400716C480394FDF71AF883
:10476000F31DDBB20193631B02934B46B1461E4619
:10477000674C029B4FF0000A5F19FFB227E009EB7C
:104780000A01C9B23A464046B047C0F30721C0B259
:10479000A3689A07FCD52173E2680892089AA26878
:1047A0000892089AA3681B06FCD4A3689907FCD555
:1047B0002073E2680792079AA2680792079AA36893
:1047C0001A06FCD40AF1010ABAF1070F25D02A789B
:1047D00042FA0AF2D107D2D5A3689A07FCD584F829
:1047E0000CB0E2680692069AA2680692069AA3683E
:1047F0001B06FCD4A3689807FCD5009B2373E268D2
:104800000592059AA2680592059AA3681906FCD438
:104810000AF1010ABAF1070FD9D13A460199404687
:10482000B047C0F30722C0B2A3689B07FCD5227330
:10483000E3680A930A9BA3680A930A9BA3681F066E
:10484000FCD4A3689907FCD52073E3680993099BFE
:10485000A3680993099BA3681A06FCD401350DF1DE
:104860003F03AB4285D133464E469946039D06F140
:1048700008070B35264CEDB2FFB22A4631464046BA
:10488000C847C0F30722C0B2A3689B07FCD52273B8
:10489000E3680C930C9BA3680C930C9BA36819060C
:1048A000FCD4A3689A07FCD52073E3680B930B9B99
:1048B000A3680B930B9BA3681B06FCD40136F6B2CE
:1048C000B742DAD101224FF48051104811B0BDE84F
:1048D000F04FFCF75FBF9F2A0ED9403A02EB8200EF
:1048E000094902EB40020A4410685168148903C365
:1048F000927A1C809A701BE7064A07CA03C3110C00
:1049000023F8022B197013E76CB50008000801406A
:10491000003800400CB600082DE9F04F164612781A
:1049200083B0DDE90C894AB304460D461F46DFF823
:1049300054A0DFF854B003E0D4B216F8012FEAB166
:104940003B46CDE9008929462046FFF7CFFEBAF85D
:10495000003004F10802083B9C42EDDBBBF800305C
:1049600005F10C020C3B9D42ACBF0025D5B216F8F8
:10497000012FB4BF00242C46002AE1D103B0BDE8CA
:10498000F08F00BFEC020020EE0200202DE9F04F76
:104990009FB0BDF8A060CDE90F12320A0292F2B2C8
:1049A0000392299AA3F12005EFB208922A9A5F2F69
:1049B0000446059200F2E4807D4B05EB85051D441D
:1049C00028682B791CAA0B921C908DF87430002259
:1049D0004FF480517748FCF7DDFE012C00F0F080A9
:1049E000A1B20C46049101224FF400717148FCF70A
:1049F000D1FE21460F9804EB8403621E03449BB250
:104A000092B20D9311929A180B189BB20E934B0011
:104A100007930023109C92B201EB040A0A93DFF87B
:104A20009CB10DF175030C921FFA8AFA06930122CC
:104A3000049B0AF1FF38AAEB03091FFA88F81FFA52
:104A400089F908F10103A3EB09039BB209930A9BBF
:104A50000B9F0E9D02FA03FA17F8013B049A13EA22
:104A60000A0FA5EB020405F1FF35A4B2ADB27CD06C
:104A7000099B2E1B06FB033600224FF480514D4844
:104A8000FCF788FE43462A4649462046FFF73CFC91
:104A9000B6B201224FF400714648FCF77BFE0023BA
:104AA0004EB3DBF808209507FBD5029A8BF80C2053
:104AB000DBF80C201B921B9ADBF808201B921B9A38
:104AC000DBF808201006FBD4DBF808209107FBD5A3
:104AD000039A8BF80C20DBF80C201A921A9ADBF858
:104AE00008201A921A9ADBF808201206FBD4013328
:104AF0009AB29642D5D801224FF480512D48FCF746
:104B000049FEBDF81C60069BA519BB42ADB2A3D1FE
:104B1000059B0A9C0193089B494600930134434638
:104B20000C9A0D980A94B144FFF780FD072C1FFAE8
:104B300089FA7FF47CAF049B109AC3EBC3031A4439
:104B400091B2059A119B0192089A0B4400929BB274
:104B50000C9A0F98FFF76AFD01224FF48051154817
:104B60001FB0BDE8F04FFCF715BE059B2A46019328
:104B7000089B4946009320464346FFF757FDC0E790
:104B80009F2B0CD90A4A403B03EB8303134418685C
:104B90001B791CAA0B921C908DF8743017E7064BFA
:104BA0001CAA93E803000B921C908DF874100EE77A
:104BB000ACB10008000801404CB2000800380040C9
:104BC000109E0F9DF31D6A1D9BB23146284692B27E
:104BD000FFF79AFB5FFA85FA22464FF400716548A9
:104BE000FCF7D8FD0AF10503DBB207930DF175035D
:104BF0004FF0000998465FFA86FB0994CDF810A0A3
:104C00005D4CDDF820A0CDF818B00B9B069ADE4372
:104C100002EB0905049A9B461644334646469846DD
:104C2000099AEDB202FA09F71BF8012B3A4240F05B
:104C3000848008EB0B01C9B22A465046059B984771
:104C4000C0F30721C0B2A3689B07FCD52173E268BB
:104C50001592159AA2681592159AA3681906FCD4A4
:104C6000A3689A07FCD52073E2681492149AA2688C
:104C70001492149AA3681B06FCD45E45D4D12A462C
:104C800007995046059B9847B046C0F30722C0B22B
:104C9000A3689E07FCD52273E3681793179BA3684C
:104CA0001793179BA3681D06FCD4A3689907FCD52E
:104CB0002073E3681693169BA3681693169BA3684C
:104CC0001A06FCD409F10109B9F1070F9DD1DDF8ED
:104CD00010A0DDF818B00AF106060BF10705264C06
:104CE000089FDDF81480EDB2F6B22A4651463846E8
:104CF000C047C0F30722C0B2A3689B07FCD522734C
:104D0000E3681993199BA3681993199BA368190663
:104D1000FCD4A3689A07FCD52073E3681893189B0A
:104D2000A3681893189BA3681B06FCD40AF1010A18
:104D30005FFA8AFA5645D8D10EE7A3689B07FCD5DF
:104D4000029B2373E2681392139AA2681392139A38
:104D5000A3681806FCD4A3689907FCD5039B2373AA
:104D6000E2681292129AA2681292129AA3681A0624
:104D7000FCD482E700080140003800402DE9F04FE4
:104D8000012895B08A4693461D46BDF8786045D007
:104D90004FEAC00900EB40071B78A0EB09027F0037
:104DA000C0EB80780446FFB2C0EB880804925FFA3B
:104DB00089F983B3A54ACDF81490914604E015F81B
:104DC000013F5FFA82FA33B3209A514602921F9A4A
:104DD0002046CDE900625A46FFF7D8FDB9F8003009
:104DE00007EB0A02434423449A45E8DB984B0499B5
:104DF0001B88059A0B4423449B455A44A8BF4FF097
:104E0000000B15F8013FBABF5FFA82FB4FF0000AB2
:104E1000DA46002BD8D115B0BDE8F08F1A78330AE6
:104E20000693002AF7D0894B8A4C0993DDF87C90D1
:104E3000F3B208950793A2F12003D9B25F291FFAB4
:104E40008AF51FFA8BF600F2E880834A03EB8303AE
:104E5000134418681B7912908DF84C3000224FF4DF
:104E600080517E48FCF796FCF31D314600266A1DF2
:104E70002846FFF749FA01224FF400717748FCF702
:104E800089FC0AF10503DBB20593CDF810A00123DC
:104E90000BEB0607049DFFB203FA06FA0DF1480872
:104EA00018F8013B13EA0A0F40F09A80209B3A461B
:104EB000294648469847C0F30723C0B2A268910725
:104EC000FCD52373E3680D930D9BA3680D930D9B95
:104ED000A3681A06FCD4A3689B07FCD52073E3687B
:104EE0000C930C9BA3680C930C9BA3681906FCD431
:104EF0000DF14D0301359845EDB2D1D1209B3A46D5
:104F0000059948469847C0F30723C0B2A2689207A4
:104F1000FCD52373E3680F930F9BA3680F930F9B3C
:104F2000A3681F06FCD4A3689D07FCD52073E36823
:104F30000E930E9BA3680E930E9BA3681806FCD4D9
:104F40000136072EA3D1DDF810A00BF10707554657
:104F50000AF10606FFB2F6B2209B3A4629464846B9
:104F60009847C0F30723C0B2A2689107FCD523730A
:104F7000E3681193119BA3681193119BA3681A0610
:104F8000FCD4A3689B07FCD52073E3681093109BA7
:104F9000A3681093109BA36813F08008FBD1013520
:104FA000EDB2AE42D8D101224FF480512B48FCF72C
:104FB000F1FB099B1B88063B9A453BDB244B1B8876
:104FC000083B9B4538DAC2460BF108035FFA83FBC6
:104FD000089B13F8012F0893002A7FF42CAF1AE7DF
:104FE000A3689907FCD5069B2373E3680B930B9B7F
:104FF000A3680B930B9BA3681A06FCD4A3689B07BA
:10500000FCD5079B2373E3680A930A9BA3680A9362
:105010000A9BA3681806FCD46AE79F2A0FD90E4B97
:10502000403A02EB82021A441068137912908DF80C
:105030004C3013E7B246CBE7C346C246C8E7084B3D
:1050400093E8030012908DF84C1007E7EC02002063
:10505000EE02002000380040ACB10008000801401A
:105060004CB2000830B5002287B005460C463648E1
:105070004FF48051FCF78EFB00224FF40071324850
:10508000FCF788FB314B9A689207FCD533221A73E0
:10509000DA682E490592059A9B680593059B8B68F3
:1050A0001806FCD401224FF400712748FCF772FB6C
:1050B000264BC5F3072299688907FCD51A73DA686D
:1050C00022490492049A9B680493049B8B681806F7
:1050D000FCD41E4BEDB29A689207FCD51D73DA68BA
:1050E0001A490392039A9B680393039B8B681B06E0
:1050F000FCD4164BC4F3072299688D07FCD51A73AC
:10510000DA6812490292029A9B680293029B8B68AA
:105110001806FCD40D4BE4B29A689207FCD51C73B8
:10512000DA680A490192019A9B680193019B8B6896
:105130001B06FCD401224FF48051034807B0BDE8A0
:105140003040FCF727BB00BF00080140003800409A
:105150000E4B82B09A690E4942F001029A619A6937
:1051600002F001020092009ADA6942F08052DA619C
:10517000DB6903F080530193019B4B6823F0E063EC
:1051800043F000734B6002B0704700BF0010024054
:1051900000000140002330B50168154A87B09142F4
:1051A000CDE90233CDE9043301D007B030BD4FF46F
:1051B0004060032212250F4C02A9A36943F00803A3
:1051C000A361A369029003F0080300930A48009BBF
:1051D00003950592FCF7DAF9E36943F48003E36190
:1051E000E36903F480030193019B07B030BD00BF66
:1051F0000058004000100240000C01400268094BBA
:105200009A4200D0704703F50333DA6982B042F066
:105210000202DA61DB6903F002030193019B02B031
:10522000704700BF00040040002330B50168154AF4
:1052300087B09142CDE90233CDE9043301D007B004
:1052400030BDC025012403F1804303F50433DA693E
:1052500002A942F00402DA61DA690B4802F00402A2
:105260000092009A9A6942F008029A619B6902953D
:1052700003F008030193019B0494FCF787F907B03E
:1052800030BD00BF00080040000C0140002330B5D5
:105290000168114A87B09142CDE90233CDE9043368
:1052A00001D007B030BD0224402503F1804303F54F
:1052B00004339A6902A942F004029A619B69074883
:1052C00003F0040301930295019B03940594FCF7FA
:1052D0005DF907B030BD00BF000400400008014088
:1052E000704700BFFEE700BFFEE700BFFEE700BF5C
:1052F000FEE700BF704700BF704700BF704700BFA8
:1053000008B500F0C1F8FCF7B9F8BDE80840FCF7B3
:1053100039B900BF0120704708B505F0B9FD162363
:1053200003604FF0FF3008BD08B505F0B1FD16234E
:105330000360FEE70C4A08B5136833B169461844A8
:10534000884209D81060184608BD08490B4611600C
:10535000694618448842F5D905F09AFD0C224FF0B1
:10536000FF330260184608BD4401002000030020FE
:1053700030B44FF41F054FF000640E4B0E4A19680D
:105380000E4841F00101196059680A405A601A68D4
:1053900022F0847222F480321A601A6822F4802289
:1053A0001A605A6822F4FE025A609D60846030BC24
:1053B000704700BF001002400000FFF800ED00E061
:1053C000002103E00B4B5B58435004310A480B4B60
:1053D00042189A42F6D30A4A02E0002342F8043BFC
:1053E000084B9A42F9D3FFF7C3FF05F057FD01F0D0
:1053F000FFFF7047D8C500080000002024010020EE
:105400002401002000030020FEE7000001390129EB
:1054100003D8024B186801F083BD70474801002093
:1054200001F024BF38B5144B1B68596A89B2B1F535
:10543000FA7F13D1114D124C0023032111482B6028
:10544000FEF7B2FA0146206801F06EFD206801F017
:10545000BDFEBDE838400A20FCF722B84FF4FA72CE
:10546000064D5A622A68064CA1F5FA7109B292B249
:10547000206801F065FDDFE73C0200204C010020C0
:105480004801002000240140024A136801331360E0
:10549000704700BF4C01002038B51B4C002120464E
:1054A000FEF70EF84FF4FA72236818485A62FDF7B7
:1054B00003FF00211548FDF75DFF154B0122052173
:1054C000144801F0A3FE142005F053FC054601F03A
:1054D000B9FD114C20210F482560FCF755F920B18A
:1054E0002068BDE8384001F003BD206801F004FEEB
:1054F0002068BDE8384001F0FBBC2846142104F0C8
:10550000B7FF05F03BFB00BF3C020020FC01002080
:105510000D540008000C014048010020FFF7BCBFFB
:10552000024B1B685B68D869704700BF48010020C8
:105530000346034A014610684268D36101F034BD56
:1055400048010020024B1B685B681869704700BF68
:1055500048010020024B1B685B681861704700BF60
:1055600048010020024B1B685B685869704700BF08
:10557000480100200346034A01461068426853610F
:1055800001F0FABC48010020024B1B685B6893F8ED
:105590002000704748010020FF2800D97047044AC6
:1055A000C3B210681946426882F8203001F0F6BC98
:1055B00048010020024B1B685B689869704700BF78
:1055C00048010020002803DB024B1B685B689861E0
:1055D000704700BF48010020014B186801F08CBDE6
:1055E00048010020704700BF704700BF10B5044657
:1055F000082104F03DFF204610BD00BF10B5044651
:10560000242104F035FF204610BD00BF002230B435
:10561000FF2145F23E74074D0272074A0560426061
:10562000064D074AC560C46180F82010C0E9042215
:1056300030BC704714BE0008E4BD000860566C0022
:1056400000093D0010B50446FEF7E2F900B910BDAF
:1056500004F10C01207A1822BDE81040FEF7F0B9E1
:1056600010B50446FEF7D4F900B910BD04F10C01E1
:10567000207A1822BDE81040FEF728BA704700BF14
:105680002DE9F04FC47C857A90F810E0121BD2B25D
:10569000AEEB050E02FB0EFEC37990F80DB090F84C
:1056A00015A0ABEB030B02FB0BFB9EFBFAFE85B0D8
:1056B00001939BFBFAF38779447A90F80C9090F869
:1056C0000F80067A90F80BC0CDF80CE090F811B07E
:1056D00090F80EE0A9EB0709A8EB040802FB09F912
:1056E00002FB08F8AEEB060EABEB0C0B02FB0EFE5A
:1056F00002FB0BFB0293DDE901231A4499FBFAF943
:1057000098FBFAF813469EFBFAFE9BFBFAFB039A02
:10571000DBB21544827C4F44891A4444EDB2C9B2CD
:10572000FFB2ED1A7644E344E4B201FB05F5E41B55
:10573000F6B25FFA8BFBABEB060B01FB04F4007DCA
:1057400001FB0BF195FBF0F594FBF0F491FBF0F10C
:105750002B443C44C3F385035B010E44C4F3C404EF
:1057600043EAC424C6F3C400204305B0BDE8F08F6B
:1057700010B50446182104F07BFE204610BD00BF82
:105780002DE9F043164D4FF0000E2E4684462F466D
:10579000A0F804E0DFF84C8036F804EF4CF8068BF4
:1057A000B5F8009096F80280AE78A0F806908CF8D4
:1057B000026037F80C6FAD688174C274B9789DF8D7
:1057C0001C2003752B0CA0F809E080F80B80858164
:1057D0008373A0F80F6041744275BDE8F08300BF89
:1057E00074B1000860BE00082DE9F04F054685B091
:1057F00000224FF480515648FBF7CCFFA87CE97C8F
:105800002A7D6B7D02440B44013A013B92B29BB26C
:10581000FEF77AFD01224FF400714D48FBF7BAFF05
:1058200095F815C0BCF1000F00F0888000230293AA
:105830001F462B7DA97A6A7A95F807906C7BEE7BE0
:105840000191A4EB09040392B61A297C019A07FB83
:1058500004F495F8068095F80BE095F808B0891ADD
:1058600095F80CA0A87B6A7C07FB06F6AAEB080A51
:10587000A2EB0E02A0EB0B0094FBFCF407FB0AFA70
:1058800007FB00F007FB01F107FB02F296FBFCF6B9
:105890009AFBFCFA90FBFCF091FBFCF192FBFCF212
:1058A000A144039CC2442644019C584421447244B0
:1058B0005FFA8AFA5FFA89F95FFA80F8F6B2C9B23C
:1058C0005FFA82FE9BB3002418462246A1EB09072B
:1058D000AEEB0801A6EB0A0B0191019E07FB02F358
:1058E0000BFB02F106FB02F293FBF0F391FBF0F1EC
:1058F00092FBF0F24B44C3F385035144C1F3C4015E
:105900005B014244C2F3C40243EAC12313431EB203
:10591000C6F30720FEF740F9F0B2FEF73DF9013477
:10592000287DE2B29042D8D8034695F815C0029A75
:105930000132D7B2BC4502923FF67CAF01224FF450
:105940008051034805B0BDE8F04FFBF723BF00BF0F
:105950000008014010B4002461F3070462F30F242F
:105960009DF8042063F3174462F31F64C0F81240EB
:1059700010BCFFF739BF00BF2DE9F04F16461C469B
:105980000F4687B09DF84050049102924FF4805129
:10599000002280465A48FBF7FDFEB8B2B1B26B1E3A
:1059A000621E02440B4492B29BB2FEF7ADFC35443A
:1059B00001224FF4007152480595FBF7EBFEAE4211
:1059C00080F29480049AA3189A42019380F28E8008
:1059D00098F80A0098F8109098F808100390A9EB2E
:1059E000000998F80B7098F80E4098F81100029A88
:1059F000641AC01B98F806A098F8073002FB04F45C
:105A000002FB00F098F80C6098F80D500093A6EB9C
:105A10000A06ED1A98F8153002FB06F694FBF3F42B
:105A200090FBF3F096FBF3F698F809E098F80FC0B6
:105A300002FB05F5ACEB0E0C02FB0CFC02FB09F9BA
:105A400095FBF3F59CFBF3FC99FBF3F90C4407443D
:105A5000049BE4B2FFB23F1B564419469A46BB462C
:105A6000009AF4441544039AF6B291445FFA8CFC10
:105A7000EDB25FFA89F9ACEB06020092A9EB0509D9
:105A8000009A09FB01F302FB01F098F814C00BFB2C
:105A900001F193FBFCF390FBFCF091FBFCF12B4438
:105AA000C3F385033044C0F3C4005B012144C1F358
:105AB000C40143EAC0230B431FB2C7F30720FEF71C
:105AC0006BF8F8B2FEF768F80AF10102019B5FFA81
:105AD00082FA9A455146D3DB029B059A03F1010BEA
